:020000040800F2
:10000000A80A0020E5010008451F0008ED1B0008B4
:10001000991E000827140008992800080000000015
:10002000000000000000000000000000B5230008F0
:100030002B14000800000000512200085D26000873
:10004000FF010008FF010008FF010008FF01000890
:10005000FF010008FF010008FF010008FF01000880
:10006000FF010008FF010008FF010008FF01000870
:10007000FF010008FF010008FF010008FF01000860
:10008000FF010008FF010008FF010008FF01000850
:10009000FF010008FF010008FF010008FF01000840
:1000A000FF010008FF010008FF010008FF01000830
:1000B000FF0100082527000841270008FF0100086C
:1000C000FF010008FF010008FF010008FF01000810
:1000D000FF010008FF0100085D270008FF0100087C
:1000E000FF010008FF010008FF010008FF010008F0
:1000F000FF010008FF010008FF010008FF010008E0
:10010000FF010008FF010008FF010008FF010008CF
:10011000FF010008FF010008FF010008FF010008BF
:10012000FF010008FF010008FF010008FF010008AF
:1001300000F002F800F047F80AA090E8000C8244B2
:100140008344AAF10107DA4501D100F03CF8AFF28F
:10015000090EBAE80F0013F0010F18BFFB1A43F0A5
:10016000010318472042000040420000103A24BF1B
:1001700078C878C1FAD8520724BF30C830C144BF0C
:1001800004680C607047000000230024002500264E
:10019000103A28BF78C1FBD8520728BF30C148BFEA
:1001A0000B607047662903F08581002070471FB5FA
:1001B00000F044FB04000020002102F04FFCE0604E
:1001C0001FBD10B510BD00F055FC1146FFF7EFFF45
:1001D00002F0D8FB00F073FC03B4FFF7F2FF03BC9E
:1001E00002F077FB0948804709480047FEE7FEE731
:1001F000FEE7FEE7FEE7FEE7FEE7FEE7FEE7FEE7D7
:1002000004480549054A064B70470000612600086E
:1002100031010008A8040020A80A0020A806002038
:10022000A8060020704700000FB4044910B503AAC7
:10023000029800F0C9FA10BC5DF814FB1800002009
:100240002DE9F0474FF0000A89460446C0F820A087
:100250002046E1688847002876D0252806D0D4E9D2
:1002600001219047206A401C2062F1E7E1682046A6
:1002700000258847C4F81CA006460027C4F818A02B
:100280002A2E09D0304602F01DFB38B304EB870854
:10029000303EC8F8186019E059F8041B204604EBFA
:1002A00087029161E1688847012F064618D1E0690D
:1002B000002820DA25F020051DE0D8F8180000EB12
:1002C000800006EB40003038C8F818002046E1688E
:1002D0008847064602F0F6FA0028EED1012F0AD030
:1002E0002E2E08D12046E16888477F1C0646022F43
:1002F00045F02005C4DBA069002803DA404245F040
:100300000105A061E80701D025F01005B6B1A6F1FE
:100310004100192802D8203645F400654A46314686
:10032000204625604D46FFF73DFF58B1012806D015
:10033000ED1D25F0070000F1080989E704E005F14B
:10034000040985E730468AE7206ABDE8F08702F0B5
:10035000FF0343EA032242EA024200F002B84FF0F0
:1003600000020429C0F0128010F0030C00F040825B
:10037000CCF1040CBCF1020F18BF00F8012BA8BF90
:1003800020F8022BA1EB0C0100F032BA5FEAC17C2D
:1003900024BF00F8012B00F8012B48BF00F8012B07
:1003A0007047704770477047704770472DE9FF4F9F
:1003B0000C461E464FF0FF378BB0D2E90001DDF846
:1003C00060800A908A46C1F30A5505B93D4600216E
:1003D00008464FF00000BAF1000F00F4400005DAC3
:1003E00000EB80004FF4400101EA50004FEA9059C1
:1003F000B9F1010F00DDB9460A9850EA4A000ED063
:1004000044F61050A5F2FF3545432F14B8F1000F04
:100410001ED07542291E1EDDC9F100021CE0B8F194
:10042000010F4FF0000001D0302103E0F24305E05E
:100430002154401CB042FBDB3046002200212154F5
:100440000B99C1F80880C1E900200FB0BDE8F08F1A
:10045000BD1B6D1CDEE74A4600DA694206A800F0C3
:100460008FFA06AB93E8070003AB83E8070050461A
:100470000A9900F06DFB8DE80700A0F500501F38C9
:1004800000900398002D0ADD42F21F014A460844FD
:10049000002303A90390684600F0D6FD09E0A0F50B
:1004A00000504A461F38002303A90390684600F015
:1004B000E0FD8DE807000004000C03D04FF0FF3092
:1004C000410800E01046B8F1000F03D0002200926E
:1004D00015461EE0751E05D400F0B4F930326255A1
:1004E0006D1EF9D5B3460122084302D000227F1CBD
:1004F00004E02078302801D100227F1E002A0997CD
:1005000084D01DE0112D07DA00F09CF930326255DD
:100510006D1C50EA0102F5D1084302D00098C8B121
:100520000EE00021681E05E0235C625C63542254E7
:10053000401E491C8142F7DBAB46A81B401E0990B8
:10054000002004F80B000B98099AC0F80880C0E955
:10055000002B7AE711264FF0000857E72DE9F04FFE
:1005600088460446D21D22F0070191B0D1E900016E
:10057000CDE90A0102F092F902460B98C00F01D0B2
:100580002D2007E02068810701D52B2002E02021E3
:1005900001EAC000032A099001D0072A05DB0346BF
:1005A0004146204600F0ACF90BE12078800601D5E9
:1005B000E06900E00620B8F1650F814606D0B8F189
:1005C000660F18D0B8F1670F70D131E00020B9F193
:1005D000110F009001DB112301E009F101030AAAC8
:1005E00001A90CA8FFF7E2FEDDE90C70002609F175
:1005F0000105834647E001204B4600904FF000473D
:100600000AAA01A90CA8FFF7D1FEDDE90DB00C99EB
:100610005D46002610B909F101000D18B9EB05007F
:1006200003D4C0F1FF3609F10105A5EB09002BE069
:10063000B9F1010F01DA4FF001090020B9F1110FF2
:100640000090484601DD112300E003460AAA01A9F3
:100650000CA8FFF7ABFEDDE90C704D460026834683
:10066000207800070AD4AB4500DA5D4601A8012DC9
:1006700004DD411911F8011C302907D04F4502DA79
:1006800017F1040F04DA012082460FE06D1EEEE739
:10069000002F02DCED1B3E4403E0781CA84200DD85
:1006A0007D1CB81B00F1010A4FF0004720780007BD
:1006B00003D4AA4501DB4FF0FF3A0021B7F1004F08
:1006C0000DF143088DF8431024D002202B23002F76
:1006D00001DA7F422D230A21021EA0F1010000DC75
:1006E0005FB197FBF1FC97FBF1F201FB1C7C174615
:1006F0000CF1300C08F801CDEEE7A8F10100037011
:100700002188090501D5452100E06521A0F10108F6
:1007100000F8011C09980FA9A1EB0807FF1D00B103
:100720000120411901EBEA70A1693844081A401E02
:10073000A0612078C00602D42046AFF3008009985B
:1007400028B1D4E901219047206A401C206220781A
:10075000C00622D52046AFF300801EE0002E04DB49
:10076000B34502DD01A8805D00E03020D4E901211D
:100770009047206A401C2062761CAAF101005FEAC3
:10078000000A0AD100F05AF8C0680168405CD4E958
:1007900001219047206A401C2062281EA5F1010516
:1007A000DCDC07E0D4E9012118F8010B9047206A4E
:1007B000401C2062381EA7F10107F3DC2046AFF38E
:1007C0000080032011B041E6074B70B50D467B4415
:1007D00000F083F80446284600F044F910B14FF0C9
:1007E000FF3070BD204670BD972100004FF0000221
:1007F00000B5134694469646203922BFA0E80C5017
:10080000A0E80C50B1F12001BFF4F7AF090728BFF1
:10081000A0E80C5048BF0CC05DF804EB890028BF6D
:1008200040F8042B08BF704748BF20F8022B11F096
:10083000804F18BF00F8012B704700000048704738
:100840006804002030B5B0F10A024FEA900E71F151
:1008500000034EEA817EB0EB0E0061EB91014FEA9E
:10086000101E4EEA017E10EB0E0041EB11114FEA13
:10087000102E4EEA016E10EB0E0041EB11214FEAF3
:10088000104E4EEA014E10EB0E0041EB11414018A4
:1008900041F100014FEAD00040EA41704FEAD10136
:1008A00010EB80054FEA810444EA907444EB0104A4
:1008B0006D1944EB0404521BA3414FF0000348BFE1
:1008C0000A3200D530BD401C41F1000130BD0000AE
:1008D00001694A1C02610878704700B58FB0CDE904
:1008E00001310021059105497944CDE903101146F4
:1008F0006846FFF7A5FC0FB000BD0000E5FFFFFF55
:100900002DE9F0411F46044603260168072A01F439
:10091000006004DB08B116A505E016A503E008B1E8
:1009200015A500E015A521F010002060A069C01EEB
:10093000A0610FB1401EA0612046AFF300804FB10F
:10094000D4E9012138469047206A401C2062C01C2F
:10095000206206E0206AFAE7D4E9012115F8010BCC
:100960009047761EF8D22046AFF30080BDE8F081B4
:100970004E414E006E616E00494E4600696E660043
:100980002DE9F047814616468AB0354878440DC8AF
:100990008DE80D0032487844801C03AC0DC884E813
:1009A0000D0041F69B300844372190FBF1F290FB9B
:1009B000F1F5A5F1800501FB12041B3C02D5644250
:1009C000012000E00020DFF898A080460027FA44CC
:1009D000AAF1BE0A0EE0E0070AD03246684607EBED
:1009E000470101230AEB810100F043FB8DE807007A
:1009F00064107F1C002CEED1194F7F44AE3F19E0EC
:100A0000E80715D007EB04100DF1180A90E80E0066
:100A10008AE80E00C068F04201D198190890324669
:100A2000012306A903A800F024FB03AB83E8070019
:100A30006D10641C002DE3D14FF00103324669466E
:100A4000B8F1000F03A802D000F0FEFA01E000F0B8
:100A500010FBC9E90001C9F808200AB0BDE8F08719
:100A6000DC390000007B00F08000704700487047D0
:100A7000480400207546FFF7F9FFAE4605006946B9
:100A8000534620F00700854618B020B5FFF7B8FBA5
:100A9000BDE820404FF000064FF000074FF000087F
:100AA0004FF0000B21F00701AC46ACE8C009ACE800
:100AB000C009ACE8C009ACE8C0098D46704710B564
:100AC0000446AFF300802046BDE81040FFF784BB2A
:100AD0004FF0013C50F8042B51F8043B9A4221D1CD
:100AE000A2EB0C03934313EACC1317D150F8042B59
:100AF00051F8043B9A4215D1A2EB0C03934313EA3D
:100B0000CC130BD150F8042B51F8043B9A4209D175
:100B1000A2EB0C03934313EACC13DBD04FF000009D
:100B2000704700BFD01A01BAB1FA81F101F0180183
:100B300022FA01F0CB40C1F12001DBB2C0B2C01AF1
:100B40002CFA01F3D11A914311EAC311E6D170478F
:100B50005FEA400C08BF91F0000F4FEA8C234FEA88
:100B6000C12243EA51514FEA1C5018BF00F5F04032
:100B70004FEA300018BF41F000415FEA6C5C00F0C2
:100B80002980BCF1FF3F08BF40F080407047130C44
:100B900006BF12044FF0100C4FF0000C130E04BFF0
:100BA00012020CF1080C130F04BF12010CF1040C1B
:100BB000930F04BF92000CF1020CD30F04BF52003C
:100BC0000CF1010C11464FF00002A0F11F00A0EB48
:100BD0000C00704711F0004F08BF704731F0004122
:100BE0003FF4D5AF0B0C06BF09044FF0100C4FF0CB
:100BF000000C0B0E04BF09020CF1080C0B0F04BF14
:100C000009010CF1040C8B0F04BF89000CF1020CDC
:100C1000CB0F04BF49000CF1010CCCF12003A0EB79
:100C20000C0022FA03F302FA0CF241EA030100F18C
:100C30000100704720F07F4C80EA030023F07F47DB
:100C4000ACEB070303F57C5300F0004003F1FF0316
:100C50002DE980494FEA154B09B44FEA144325EAC0
:100C60000B4E24EA03480FF2042606EB132749082B
:100C70003E785FEA320203FB0667C7F5000707FB11
:100C800006F64FEA54374FEAD64606F1020607FB4E
:100C9000066CCCF1005C4FEA1C472CEA074C07FBC2
:100CA00006F40CFB06F504EB15464FEA961634BF26
:100CB00000204FF000404FEAD13706FB07FC4FEA17
:100CC0001C4C0CFB0BF7D21B03FB0CF761EB070171
:100CD0000CFB0EF7B0EB074072EB17420CFB08F76A
:100CE00034BFA2EB0742B2EB074261EB17414FEA78
:100CF0000C444FEA910706FB07FC4FEA1C4C0CFB27
:100D00000BF7B0EBC74072EB573203FB0CF734BF65
:100D1000A2EBC742B2EBC74261EB57310CFB0EF7B7
:100D2000B0EBC70072EB57720CFB08F734BFA2EBB5
:100D3000C702B2EBC70261EB5771039F4FEA8161B3
:100D400041EA921104EBCC044FEAD1374FEA8262B8
:100D500006FB07FC42EA90124FEA80604FEA1C4C07
:100D60000CFB0BF7D21B03FB0CF761EB07010CFB31
:100D70000EF7B0EB074072EB17420CFB08F734BFDD
:100D8000A2EB0742B2EB074261EB17414FEA8C55E9
:100D90004FEA910704EB9C2406FB07FC4FEA1C4C2E
:100DA0000CFB0BF7B0EBC74072EB573203FB0CF7B1
:100DB00034BFA2EBC742B2EBC74261EB57310CFB29
:100DC0000EF7B0EBC70072EB57720CFB08F734BF9D
:100DD000A2EBC702B2EBC70261EB577115EB4C25D2
:100DE0004FEA816141EA92114FEA82624FEAD137BC
:100DF00042EA901206FB07FC44F100044FEA8060CF
:100E00004FEA1C4C0CFB0BF7D21B03FB0CF761EBFE
:100E100007010CFB0EF7B0EB074072EB17420CFB1F
:100E200008F734BFA2EB0742B2EB074261EB174170
:100E300015EB1C154FEA813141EA92414FEA8232AB
:100E400042EA90424FEA80304FEA0C7644F10004C7
:100E500048EA03434EEA0B484FF0000EB2EB080C91
:100E600071EB030724BF624639464EEB0E0E4FF07E
:100E7000000B0018524149414BEB0B0BB2EB080C35
:100E800071EB03077BF1000B24BF624639464EEB42
:100E90000E0E4FF0000B0018524149414BEB0B0B6B
:100EA000B2EB080C71EB03077BF1000B24BF624629
:100EB00039464EEB0E0E51EA020718BF46F0010606
:100EC00016EB0E7655F1000254F1000103D5BDE892
:100ED0008901BDE80088BDE88901BDE80048B61970
:100EE000524141EB0101A3F10103704780807F7EF5
:100EF0007D7C7B7A79787776767574737271717090
:100F00006F6E6E6D6C6C6B6A6A6968686766666541
:100F10006464636362616160605F5F5E5E5D5D5CCF
:100F20005C5B5B5A5A595958585757565655555540
:100F30005454535352525251515050504F4F4F4EA0
:100F40004E4D4D4D4C4C4C4B4B4B4A4A4A494949EE
:100F50004848484747474746464645454544444430
:100F6000444343434342424242414141002B9C4659
:100F700030D477002BD01CB54FEA370703B44FF0BD
:100F800010004FF01001BAF1000F06D0BCF1000FB5
:100F9000DCBF40F0080040F008014FF000000FBC3B
:100FA000BDE810400BF1010BBBF1010F08BF5FEA78
:100FB000170722BF12F1010211F101014FF00041A8
:100FC00043F1000300F0004043EA00007047F9D30A
:100FD0005708D0E746EA064613F1400F4FEA164697
:100FE0001FDD13F1200FDFBF16430A460021203317
:100FF0005B42BED0C3F1200746EA064602FA07F775
:101000004FEA164646EA0706C3F1200722FA03F222
:1010100001FA07F721FA03F14FF0000342EA070251
:10102000A7E746EA020646EA06464FEA164646EAB9
:101030000106BCBF46EA0646360C4FF000034FF0EF
:1010400000024FF0000194E72DE9804C9A46934648
:1010500070B491E8380007C831EA400C48BF34EA60
:10106000430C03D5FFF7E6FDFFF780FFF0BCBDE8BA
:10107000008C2DE9804C9A46934670B491E8380074
:1010800007C810F0804F08BF13F0804F03D100F065
:1010900005F8FFF76BFFF0BCBDE8008C20F07F4740
:1010A00080EA030023F07F4C07EB0C03A3F57C538D
:1010B00000F00040A3F1FE0392F0000F00F0B380B7
:1010C00095F0000F00F077802DE901494FEA1140BB
:1010D0004FEA144621EA004800FB06FC24EA0647D2
:1010E00008FB06F607FB08F800FB07F718EB0648B5
:1010F0004CEB164C4FEA124B18EB07484FEA1546DB
:101100004CEB174022EA0B4E0BFB06FC25EA064788
:101110000EFB06F607FB0EFE0BFB07F71EEB064E5B
:101120004CEB164C4FF000061EEB074E4CEB174BEA
:1011300018EB0B0840F1000018EB0E0B58EB000801
:1011400040F100008F1A4FF000013CBFC943661BFD
:1011500014BFB5EB040C00213CBFC943F61B4FEA9A
:1011600017444EEA8E0E27EA04454FEA1C4704FB5B
:1011700007622CEA074C05FB07F70CFB05F604FB9E
:101180000CFC16EB074642EB174216EB0C4642EB03
:101190001C421BEB060658EB0202414146EA9E0642
:1011A00001D5BDE80189B619524141EB0101A3F116
:1011B0000103BDE801894FEA14454FEA114724EACB
:1011C000054621EA074C05FB07F406FB07F70CFB75
:1011D00006F105FB0CFC11EB074144EB17444FEA09
:1011E000124711EB0C4144EB1C4422EA074C05FB6F
:1011F00007F206FB07F70CFB06F605FB0CFC16EBEB
:10120000074642EB174216EB0C4642EB1C456A18A8
:1012100054F1000148BF7047B619524141EB01013A
:10122000A3F10103704795F0000F37D04FEA114248
:101230004FEA144721EA024624EA074C02FB07F171
:1012400006FB07F70CFB06F402FB0CFC14EB07444F
:1012500041EB17414FEA154714EB0C4441EB1C419D
:1012600025EA074C02FB07F506FB07F70CFB06F621
:1012700002FB0CFC16EB074645EB174516EB0C463C
:1012800045EB1C42121951F1000148BF7047B619D5
:10129000524141EB0101A3F1010370474FEA1445AC
:1012A0004FEA114724EA054621EA074C05FB07F1FE
:1012B00006FB07F70CFB06F24FF0000605FB0CFCE3
:1012C00012EB074241EB174112EB0C4251EB1C4170
:1012D00048BF7047921841EB0101A3F10103704729
:1012E00008B508208DF8000000208DF801006B463D
:1012F0000222BE21382001F00DF908BD70B503248B
:1013000003251AE00325282000F0B2F807E00A20A0
:1013100000F0AEF8FFF7E4FFC82000F0A9F800F0F5
:101320001FF818B9681EC0B2051EF0D105B108E05B
:1013300000F063F8C82000F09BF8601EC0B2041EE5
:10134000E0D100BF24B1C82000F092F8002070BDA9
:101350000120FCE710B500F046F80446E00910BD96
:1013600010B500F040F80446C4F3C00010BD7CB5D1
:1013700005460426002400F048F800BF4B2000F08A
:1013800077F8FFF7E7FF18B1701EC0B2061EF5D15F
:101390003EB3052000F06CF86B4606220021382091
:1013A00001F07EF800249DF80100204304029DF81E
:1013B0000200204304029DF80300044324092C602A
:1013C00000249DF80300204304029DF804002043FC
:1013D00004029DF805000443C4F313046C6000206C
:1013E0007CBD0120FCE708B56B46012200213820B6
:1013F00001F056F89DF8000008BD08B56B460022C4
:10140000BA21382001F086F808BD08B533208DF8E0
:10141000000000208DF801006B460222AC2138202C
:1014200001F078F808BD00BFFEE7704710B56FF017
:10143000040001F0FFF80A4800680A49B0FBF1F027
:10144000094908700846007800EB4001C1EBC01064
:101450004FF6FF7101EAC0000449088010BD00008A
:101460000000002000127A00140000201600002066
:101470000146114A12884A434FF0E0235A61002284
:101480009A611A46126942F001021A6100BF4FF0D8
:10149000E022106900F001021AB100F48032002A43
:1014A000F5D04FF0E022126922F001024FF0E02364
:1014B0001A6100229A617047160000200146114A05
:1014C00012784A434FF0E0235A6100229A611A468B
:1014D000126942F001021A6100BF4FF0E022106968
:1014E00000F001021AB100F48032002AF5D04FF06A
:1014F000E022126922F001024FF0E0231A6100227B
:101500009A617047140000202DE9F0410246002541
:101510000026002000230024002791F803C00CF0CF
:101520000F0591F803C00CF0100CBCF1000F03D0B4
:1015300091F802C04CEA050591F800C0BCF1000F1B
:1015400031D0146800202BE04FF0010C0CFA00F3AE
:10155000B1F800C00CEA03069E4220D183004FF090
:101560000F0C0CFA03F7BC4305FA03FC4CEA040425
:1015700091F803C0BCF1280F06D14FF0010C0CFA12
:1015800000FCC2F814C00AE091F803C0BCF1480F97
:1015900005D14FF0010C0CFA00FCC2F810C0401C41
:1015A0000828D1D31460B1F800C0BCF1FF0F34DDBE
:1015B000546800202EE000F1080C4FF0010808FAF2
:1015C0000CF3B1F800C00CEA03069E4221D183005F
:1015D0004FF00F0C0CFA03F7BC4305FA03FC4CEA7E
:1015E000040491F803C0BCF1280F05D100F1080CE8
:1015F00008FA0CF8C2F8148091F803C0BCF1480F47
:1016000007D100F1080C4FF0010808FA0CF8C2F8F5
:101610001080401C0828CED35460BDE8F0814161A1
:101620007047016170472DE9F04106460F461446A8
:101630001D46DDF8188026E0102C06D143462A46C8
:101640003946304600F0ACF813E0182C06D143467A
:101650002A463946304600F01BF90AE0202C06D114
:1016600043462A463946304600F094F901E0BDE889
:10167000F0813019C6B2C4F18000B04202DA00260F
:101680003819C7B2AD1C28780028D5D100BFEEE7C5
:101690002DE9F84F06460F4692469946DDF828B0E8
:1016A0004FF0000800240025AAF1200000F0FF08F8
:1016B0007F2E02DD0026B81CC7B2B9F1100F30D161
:1016C00000242BE0BBF1000F05D004EB08103249D9
:1016D000085C009006E004EB08102F49085CC0434A
:1016E000C0B20090002515E08020284100990840F4
:1016F00038B13A19D1B27219D0B2012200F048FDC6
:1017000006E03A19D1B27219D0B2002200F040FDC1
:10171000681CC5B2082DE7DB601CC4B2102CD1DBFD
:1017200035E0B9F1080F30D100242BE0BBF1000FF8
:1017300005D01A4800EBC800005D009006E017488D
:1017400000EBC800005DC043C0B20090002515E06A
:10175000802028410099084038B13A19D1B2721955
:10176000D0B2012200F014FD06E03A19D1B272198C
:10177000D0B2002200F00CFD681CC5B2082DE7DBDA
:10178000601CC4B2082CD1DB01E0BDE8F88F00F08A
:1017900037FC00BFF9E70000B0370008B834000894
:1017A0002DE9FF4F83B08046894692460220019082
:1017B000002562E005EB0510344911F810009AF895
:1017C0000010884257D105EB0510304901EB40006D
:1017D00040789AF8011088424DD1002448E00698DC
:1017E00040B105EB0510294901EB4000801C005D6C
:1017F000029009E005EB0510244901EB4000801C34
:10180000005DC043C0B2029000262DE08020304130
:101810000299084098B1274604EBD77209EB62029F
:10182000D1B2A34604EBDB725210A4EB420208EBE8
:10183000C2023244D0B2012200F0AAFC12E02746D4
:1018400004EBD77209EB6202D1B2A34604EBDB7260
:101850005210A4EB420208EBC2023244D0B2002282
:1018600000F096FC701CC6B2082ECFDB601CC4B220
:10187000202CB4DB04E0681CC5B20198854299DBDA
:1018800000BF00F0BDFB07B0BDE8F08FA03D000831
:101890002DE9FE4F0746884691469B46062002905A
:1018A00000256DE005EB850000EB4510384911F887
:1018B000100099F80010884260D105EB850000EB1C
:1018C0004510334901EB4000407899F801108842F7
:1018D00054D100244FE0BBF1000F0AD005EB850086
:1018E00000EB45102A4901EB4000801C10F804A0D1
:1018F0000BE005EB850000EB4510254901EB4000AE
:10190000801C005DC04300F0FF0A00262FE080200D
:10191000304100EA0A00A0B1032094FBF0F04044FB
:10192000C0B20190032094FBF0F100FB114007EBE3
:10193000C0003044C0B201220090019900F028FCA0
:1019400013E0032094FBF0F04044C0B20190032068
:1019500094FBF0F100FB114007EBC0003044C0B233
:1019600000220090019900F013FC701CC6B2082EF2
:10197000CDDB601CC4B2482CADDB04E0681CC5B2F2
:10198000029885428EDB00BF00F03AFBBDE8FE8F77
:10199000283E00082DE9FF4F83B0804689469246D5
:1019A00006200190002566E005EB8510364911F808
:1019B00010009AF8001088425BD105EB851032497F
:1019C00001EB400040789AF80110884251D1002480
:1019D0004CE0069840B105EB85102B4901EB400027
:1019E000801C005D029009E005EB8510264901EBA3
:1019F0004000801C005DC043C0B20290002731E06F
:101A00008020384102990840A8B12646E21704EB2D
:101A1000927209EBA202D1B2A346E21704EB9272D2
:101A20009210A4EB820208EBC2023A44D0B2012227
:101A300000F0AEFB14E02646E21704EB927209EBCD
:101A4000A202D1B2A346E21704EB92729210A4EB69
:101A5000820208EBC2023A44D0B2002200F098FBA6
:101A6000781CC7B2082FCBDB601CC4B2802CB0DB63
:101A700004E0681CC5B20198854295DB00BF00F008
:101A8000BFFA07B0BDE8F08FE43F00082DE9F84F3A
:101A90000546894616461C46DDF828A00027102C6E
:101AA00005D1204604EBD071C1F347080BE0082CA8
:101AB00007D1204604EBD0714910891C01F0FF08C2
:101AC00001E0BDE8F88F13E0CDF800A0F25D2346F9
:101AD00049462846FFF7DCFD05EB0800C5B2782D26
:101AE00004DD002509EB040000F0FF09781CC7B2F3
:101AF000F05D0028E8D100BFE3E700002DE9FF4FCB
:101B000083B080468946924602200190002562E01B
:101B100005EB0510344911F810009AF800108842BE
:101B200057D105EB0510304901EB400040789AF899
:101B3000011088424DD1002448E0069840B105EBE1
:101B40000510294901EB4000801C005D029009E06E
:101B500005EB0510244901EB4000801C005DC043EB
:101B6000C0B2029000262DE080203041029908404A
:101B700098B1274604EBD77209EB6202D1B2A346B3
:101B800004EBDB725210A4EB420208EBC2023244B7
:101B9000D0B2012200F0FCFA12E0274604EBD77223
:101BA00009EB6202D1B2A34604EBDB725210A4EB44
:101BB000420208EBC2023244D0B2002200F0E8FA3E
:101BC000701CC6B2082ECFDB601CC4B2202CB4DB64
:101BD00004E0681CC5B20198854299DB00BF00F0A3
:101BE0000FFA07B0BDE8F08FE43D000800BFFEE744
:101BF00010B500200F4908600F48006820F07040C1
:101C00000D4908600846006840F040500860002018
:101C10000A49C1F89C010220FFF750FC0120054948
:101C200008600220FFF74AFC00200449C1F898012F
:101C300010BD000098812142000C0140008021422B
:101C400010B500200F4908600F48006820F0704070
:101C50000D4908600846006840F0405008600120C7
:101C60000A49C1F89C010220FFF728FC0120054920
:101C700008600220FFF722FC00200449C1F8980107
:101C800010BD000098812142000C014000802142DB
:101C900070B5054600241748006820F070401549CB
:101CA00008600846006840F080400860002616E0A2
:101CB0000020114908600220FFF700FC01200F49B5
:101CC000C1F898016006040E0B487C38006808B122
:101CD000601CC4B20120FFF7F1FB701CC6B2082ED5
:101CE000E6DB15B9FFF7ACFF01E0FFF781FF204607
:101CF00070BD0000000C014098812142008021420B
:101D000070B504461548006820F07040134908601B
:101D10000846006840F04050086000201049086004
:101D2000002517E0E0090E49091D08606006040E51
:101D30000220FFF7C3FB01200A49C1F898010220E5
:101D4000FFF7BCFB0020064908600220FFF7B6FB46
:101D5000681CC5B2082DE5DB70BD0000000C014019
:101D6000988121420080214210B50F48006820F080
:101D700070400D4908600846006840F04050086017
:101D800001200A4908600A49C1F898010520FFF7B7
:101D900095FB0020054908600520FFF78FFB002018
:101DA0000349C1F8980110BD000C01409C812142FB
:101DB0000080214210B50F48006820F070400D49A6
:101DC00008600846006840F04050086000200A495A
:101DD00008600A49C1F89C010520FFF76FFB01204C
:101DE000054908600520FFF769FB01200349C1F898
:101DF0009C0110BD000C01409881214200802142CD
:101E000010B500241448006820F0704012490860A2
:101E10000846006840F08040086001200F490860D3
:101E2000FFF74CFB01200E49C1F89801FFF746FB74
:101E300007E0601CC4B2FA2C03DDFFF7BBFF0120F2
:101E400010BD0648803800680028F2D10349091FF8
:101E5000086000BFF4E70000000C01409C812142B3
:101E60000080214208B50121082000F003FAC020BB
:101E7000ADF8000010208DF8030003208DF802005B
:101E800069460448FFF740FBC0210248FFF7C9FB41
:101E900008BD0000000C014000BFFEE710B586B091
:101EA00004460121042000F0E5F90121480400F076
:101EB000D1F94FF40070ADF8140018208DF8170018
:101EC00003208DF8160005A91C48FFF71DFB4FF4F1
:101ED0008060ADF8140004208DF8170005A917489C
:101EE000FFF712FB25208DF8000000208DF801007F
:101EF00001208DF802008DF80300684600F02AF8F2
:101F000001940020ADF810000C20ADF80E00002068
:101F1000ADF80C00ADF80A00ADF8080001A90848BA
:101F200000F04EFC012240F22551054800F023FC50
:101F30000121034800F013FC06B010BD0008014069
:101F400000380140704710B54FF4A06000F03AF837
:101F500010BD000070B5002100230F22C47804B327
:101F6000154C246804F4E064C4F5E064210AC1F16E
:101F70000403CA40447804FA03F1847814402143EE
:101F800009010E4C0678A155047804F01F050124C0
:101F9000AC4005786D11AD0005F1E025C5F80041B4
:101FA00009E0047804F01F050124AC40044D0678D4
:101FB000761145F8264070BD0CED00E000E400E02D
:101FC00080E100E002490143024A116070470000CD
:101FD0000000FA050CED00E010B5044634B1FF2214
:101FE0004FF480610548FEF7B2F904E04FF48061D8
:101FF0000248FEF7B4F900F003F810BD48000020D5
:1020000070B500241BE004F1B000002100F000F9DD
:102010000021084600F0FCF80021102000F0F8F83C
:10202000002508E005EBC411064A505C012100F0D0
:10203000EFF8681CC5B2802DF4DB601CC4B2082C1C
:10204000E1DB70BD4800002010B500F06BF8C8203F
:1020500000F064FC00F082F80021AE2000F0D8F817
:102060000021084600F0D4F80021102000F0D0F83C
:102070000021402000F0CCF80021B02000F0C8F88A
:102080000021812000F0C4F80021FF2000F0C0F8FA
:102090000021A12000F0BCF80021A62000F0B8F833
:1020A0000021A82000F0B4F800213F2000F0B0F893
:1020B0000021C82000F0ACF80021D32000F0A8F8DF
:1020C0000021084600F0A4F80021D52000F0A0F877
:1020D0000021802000F09CF80021D92000F098F821
:1020E0000021F12000F094F80021DA2000F090F8AF
:1020F0000021122000F08CF80021DB2000F088F88D
:102100000021302000F084F800218D2000F080F8BC
:102110000021142000F07CF80021AF2000F078F8B6
:1021200010BD000008B50121082000F0A3F84FF40D
:102130003C40ADF8000010208DF8030003208DF81E
:10214000020069460448FFF7DFF94FF43C410248BA
:10215000FFF767FA08BD0000000C014010B54FF40E
:1021600080510A48FFF75DFA642000F0D7FB4FF476
:1021700080510648FFF753FA642000F0CFFB4FF47C
:1021800080510248FFF74DFA10BD0000000C0140DD
:10219000F0B503461446E4B1CD1701EB5575ED10CB
:1021A00003EBC515194E755D0A46CE1701EB567641
:1021B000F610A1EBC6070126BE40F6B2354308462D
:1021C000CE1701EB5676F61003EBC6160F4FBD5532
:1021D0001AE0CD1701EB5575ED1003EBC5150B4E4D
:1021E000755D0A46CE1701EB5676F610A1EBC607D1
:1021F0000126BE40B5430846CE1701EB5676F610D1
:1022000003EBC616014FBD55F0BD0000480000208D
:1022100070B504460D462DB14FF480610B48FFF7B1
:1022200000FA04E04FF480610848FFF7F8F94FF432
:1022300000610648FFF7F3F9E0B200F095F84FF4BB
:1022400000610248FFF7EDF970BD0000000C01408D
:102250007047000029B1064AD2690243044BDA6193
:1022600004E0034AD2698243014BDA6170470000FF
:102270000010024029B1064A92690243044B9A6158
:1022800004E0034A92698243014B9A61704700005F
:102290000010024030B500210022002400232D4D03
:1022A0006D6805F00C0121B1042905D0082923D15E
:1022B00005E0294D056022E0274D05601FE0254D12
:1022C0006D6805F47012234D6D6805F480340225A5
:1022D00005EB92421CB9214D554305600BE01D4DA5
:1022E0006D6805F400351DB11C4D5543056002E0D5
:1022F000194D5543056002E0174D056000BF00BF52
:10230000144D6D6805F0F0010909154D6B5C056809
:10231000DD4045600F4D6D6805F4E061090A104D20
:102320006B5C4568DD4085600A4D6D6805F4605161
:10233000C90A0B4D6B5C4568DD40C560054D6D6895
:1023400005F44041890B074D6B5CC568B5FBF3F59F
:10235000056130BD0010024000127A0000093D0006
:102360001C0000202C00002070B504460025082524
:102370001BE004F0800028B14FF400410C48FFF747
:1023800050F904E04FF400410948FFF748F94FF4D1
:1023900000510748FFF743F94FF400510448FFF795
:1023A00040F96006040E681EC5B2002DE1DC70BD68
:1023B000000C0140704710B500F002F810BD00009D
:1023C0000CB50020019000903348006840F4803044
:1023D0003149086000BF3048006800F400300090C8
:1023E0000198401C0190009818B90198B0F5A06FB1
:1023F000F1D12948006800F4003010B101200090AC
:1024000001E0002000900098012843D12348006893
:1024100040F01000214908600846006820F00300E1
:1024200008600846006840F0020008601A484068EA
:10243000194948600846406848600846406840F4CA
:10244000806048600846406820F47C104860084678
:10245000406840F4E81048600846006840F080702A
:10246000086000BF0C48006800F000700028F9D038
:102470000948406820F00300074948600846406862
:1024800040F00200486000BF0348406800F00C00C4
:102490000828F9D10CBD00000010024000200240C5
:1024A0002DE9F04106460F4614461D46FFF75CFC39
:1024B000002141EA4601C8B2FFF722FCFFF7A0FC69
:1024C00020B1FFF777FC0120BDE8F0813846FFF727
:1024D00017FCFFF795FCFFF747FC012101EB4601D4
:1024E000C8B2FFF70DFCFFF78BFC0DE0012C04D107
:1024F0000020FFF7CDFB287003E00120FFF7C8FBA9
:102500002870601EC4B26D1C002CEFD1FFF752FC86
:102510000020D9E72DE9F04105460E4617469846BA
:10252000FFF722FC002141EA4501C8B2FFF7E8FBB2
:10253000FFF766FC20B1FFF73DFC0120BDE8F0810C
:102540003046FFF7DDFBFFF75BFC00240CE018F8DA
:102550000400FFF7D5FBFFF753FC18B1FFF72AFC87
:102560000120EBE7601CC4B2BC42F0DBFFF722FCA9
:102570000020E3E72DE9FC478246DAF8040000F08A
:10258000B5FC80460022244B00F0C4FC0646002225
:10259000224B00F053FB044600F076FACAF80C0018
:1025A000DAF8080000F0A2FC064600221C4B00F0FE
:1025B000B1FC04460022194B00F040FB804600228B
:1025C000184B00F0A5FDCDE9000100F05DFACAF856
:1025D00010000021DAF80C0000F03BFF16D8124979
:1025E000DAF80C0000F0B6FE10D81049DAF8100046
:1025F00000F02FFF0AD80E49DAF8100000F0AAFE0A
:1026000004D800208AF80100BDE8FC8701208AF880
:10261000010000BFF8E70000000059400000304111
:1026200000006940000049400000C842000020C28C
:102630000000AA42042808D14FF0E021096941F0C6
:1026400004014FF0E022116107E04FF0E021096939
:1026500021F004014FF0E022116170477047000043
:1026600010B51348006840F00100114908600846A1
:102670004068104908400E494860084600680E4905
:1026800008400B4908600846006820F48020086074
:102690000846406820F4FE0048604FF41F00886040
:1026A000FFF789FE4FF000600449086010BD00008C
:1026B000001002400000FFF8FFFFF6FE08ED00E00A
:1026C00008B5012012A31022002100900A20FEF775
:1026D000AAFF0120102310A2002100902820FFF75C
:1026E000D5F901230DA214210A20FFF707FA0120D2
:1026F000102309A2142100902820FFF7C7F940F207
:10270000DC5000F00BF940F2DC5000F007F908BD96
:10271000CEC2B6C8000000003A000000CAAAB6C87F
:10272000000000000548008800F0010028B10348BF
:10273000008820F001000149088070471004004023
:102740000548008800F0010028B10348008820F007
:10275000010001490880704710080040704721B10E
:10276000828942F40052828104E082894DF6FF732F
:102770001A4082817047F0B50346002400260025E8
:10278000002040F66A17B94200D100BF1846C1F3D5
:10279000421401F01F06012707FA06F5012C01D1AA
:1027A0000C3004E0022C01D1103000E014301AB1DA
:1027B00007682F43076002E00768AF430760F0BD7A
:1027C0002DE9F04786B005460E460024A24600BF1C
:1027D000A1460027B08900B100BF2F462C8A4CF6D5
:1027E000FF700440F08804432C82AC894EF6F3104D
:1027F0000440B08831890843718908430443AC819F
:10280000AC8A4FF6FF400440B0890443AC8201A873
:10281000FFF740FD1F48874202D1DDF810A001E01C
:10282000DDF80CA0A88900F4004040B10AEBCA0012
:1028300000EB0A1031684900B0FBF1F807E00AEB41
:10284000CA0000EB0A1031688900B0FBF1F864207F
:10285000B8FBF0F004012009642101FB1089A8896C
:1028600000F4004040B1322000EBC900B0FBF1F0B1
:1028700000F00700044308E0322000EB0910642157
:10288000B0FBF1F000F00F0004432C8106B0BDE86E
:10289000F08700000038014000BFFEE7490050EA21
:1028A000C12018BF04204A0D18BF40F0010040F2BB
:1028B000FF72B2EB515F08BF40F00200012808BF71
:1028C0000520704730380A2801D2012070470020C7
:1028D0007047014600BF704710B56FF00400FFF766
:1028E000A9FE0A4800680A49B0FBF1F009490870DE
:1028F0000846007800EB4001C1EBC0104FF6FF71B5
:1029000001EAC0000449088010BD0000000000205A
:1029100000127A0030000020320000200146114AE7
:1029200012884A434FF0E0235A6100229A611A4606
:10293000126942F001021A6100BF4FF0E0221069F3
:1029400000F001021AB100F48032002AF5D04FF0F5
:10295000E022126922F001024FF0E0231A61002206
:102960009A6170473200002000BF054A128802F0C9
:102970008002002AF9D0C2B2014B1B1D1A80704799
:10298000003801400EB5FFF7A7FFFFF7DCFAFFF7AD
:102990005BFB0020FFF720FBFFF764FAFEF746FD24
:1029A0004FF4E130FFF77AFA01211C20FFF762FCB7
:1029B00010208DF80B0003208DF80A004FF4005012
:1029C000ADF8080002A91B48FEF79EFD4FF4005128
:1029D0001848FEF724FEFEF791FC08B9012000E03C
:1029E00000201549087023E01348007840B11248D0
:1029F000001DFEF7BCFC104948700846FFF7BAFD01
:102A0000FFF75EFE0C49C86800F06CFC04460D46FA
:102A10000949086900F066FC064632460B4607A0E5
:102A2000CDE90045FDF700FC4FF47A70FEF720FD7C
:102A3000DAE700000010014034000020E6B8A9E504
:102A4000BAA63A252E3266C2B0632020E6B9BFE5A9
:102A5000BAA63A252E326625250A000010B50029AF
:102A60000AD00878002807D005487844FEF730F8E7
:102A7000002801D0002010BD0248784410BD00009D
:102A80003A1900003219000021F00042A2F1605210
:102A9000B2F5801F01F0004328BFD2F17F6C0BD943
:102AA0005FEA001C43EAC20242EB507018BF704755
:102AB00028BF20F001007047B2F5801FBCBF184648
:102AC00070474FEA410C1CF5001F02D2084600F087
:102AD000BBBC70B500F0C8FA00000089FFF7F6BF74
:102AE0004FF00040A0F580007047000010B591EA5B
:102AF000030F48BF83F0004300F11283841A71EB87
:102B0000030C05D2121943EB0C03001B61EB0C0103
:102B1000DFF824E14FEA1154A4EB135C1EEA430FE3
:102B200018BF9EEA445F73D023EA0E03DCF1200E47
:102B300021EA045143F4801332D322FA0CFE10EB45
:102B40000E0023FA0CFE41EB0E01CCF1200E03FA2D
:102B50000EFE10EB0E0051F10001B1F5801FCCF11B
:102B6000200E32D201EB045112FA0EF2BDE81040F1
:102B700058BF7047401C38BF5FEA420218BF704719
:102B8000002814BF20F0010041F100014FEA410389
:102B900013F5001F38BF7047A1F1C04100F0B2BA71
:102BA000012A43EB0302ACF1200CDCF11F0E32BF13
:102BB0004FF0000E23FA0CF310EB030041EB04512D
:102BC000B4EB115FD0D0A1EB045101F5801149089D
:102BD0005FEA300001EB04510ED350F1000038BF22
:102BE00012FA0EFE08D1BDE81040C9E7401C38BFFC
:102BF0005FEA4202CAD1C3E7BDE810404FEA410391
:102C000013F5001F38BF7047A1F1C04100F07ABA38
:102C10009EEA445F08D011EA5E0FBDE8104004BF91
:102C200001F0004100207047BDE8104070B500F091
:102C30001BFA00BF64FBBE3E0000E0FF2DE9C0416F
:102C400030B4DFF8A0C23CEA111418BF3CEA1314F8
:102C500000F0EC8081EA03051CEA111444EAD57403
:102C600018BF1CEA131500F0C780A4EB05044FF051
:102C7000004545EAC12145EAC32341EA505143EAF0
:102C8000525304F17F74994204F500344FEAC02096
:102C90004FEAC22208BF904200F09C804FEA1365C1
:102CA0000FF24016765D4FEA134506FB05F7C7F1B4
:102CB000807706FB07F74FEAD737A7FB0368764212
:102CC000C8F58038A7FB06CE38BFA8F1010807FB7E
:102CD00008E64FF0000EA6FB028CE6FB03CEDCF10B
:102CE000000CCEF1004E38BFAEF1010EA6FB0C5821
:102CF0004FF000074FF00005E6FB0E87A1FB08C66A
:102D0000A0FB07CE16EB0E0645F10005E1FB0765BB
:102D100015F1E04E7EBFA4F580345FEA46066D41B2
:102D200016F1800745F100054FEA17274FEA0666BE
:102D300047EA0567A6F1DE46B6F1805F4FEA152542
:102D40001FD9384624F0010C05EBC471BCF1FE6FAD
:102D500001EB0C1102D8F0BCBDE8008124425CBF3D
:102D600001F5801E9EEAC47F02D4F0BCBDE800815C
:102D7000244238D4F0BCA1F1C041BDE8004100F0CC
:102D8000C1B94FEAD22242EA43524FEAD323A7FB0A
:102D900002864FEAD02040EA415007FB03661EEA54
:102DA0000E0F4FEAD12105FB026658BFA6EB005675
:102DB000B6EB00564FEA520E4EEAC37E18EB0E0EEB
:102DC00056EB530EBDD518EB02085E417F1C55F142
:102DD0000005B6E74FF480154FF000074FF00006EE
:102DE0004FF00008ADE7F0BC4FF0000001F1C0412A
:102DF00001F00041BDE8008111EA0C1F0CEA131537
:102E000000D00CE013EA0C1F00F025804FF000000A
:102E1000F0BC81EA030101F00041BDE80081F0BC93
:102E2000BDE8004181EA030100F06CB9F0BCBDE8E7
:102E3000004170B500F018F9097EFC3E00F007B8BB
:102E400081EA03014FF0000001F00041704781EA80
:102E5000030100F057B9F0BCBDE800414FF000009D
:102E600021497047FFFDFBF9F7F5F4F2F0EEEDEBC9
:102E7000E9E8E6E4E3E1E0DEDDDBDAD8D7D5D4D378
:102E8000D1D0CFCDCCCBCAC8C7C6C5C4C2C1C0BFC4
:102E9000BEBDBCBBBAB9B8B7B6B5B4B3B2B1B0AFCA
:102EA000AEADACABAAA9A8A8A7A6A5A4A3A3A2A1AE
:102EB000A09F9F9E9D9C9C9B9A9999989797969569
:102EC00095949393929191908F8F8E8E8D8C8C8B05
:102ED0008B8A89898888878786858584848383828D
:102EE000828181800000FF070000F87FB0FA80F344
:102EF00010FA03F10AD0C3F11D0303F580634FEA12
:102F000041504FEA035202EBD12170474FF00000CD
:102F100070470000DFF848C170B51CEA111E1EBFE3
:102F20001CEA13159EEA0C0F95EA0C0F00F06F8057
:102F300081EA030423EA4C134EEAD47E21EA4C11C1
:102F400041F4801143F48013AE44A1FB024CA0FB7A
:102F50000365AEF17F7E361955EB0C05A1FB034CE2
:102F60004CF10003A0FB021C16EB0C06654153F16B
:102F70000003094218BF46F0010613F4007F0BD18D
:102F80004FEA03314FEA0530340341EA155140EA74
:102F900016506FF003020AE04FEAC3214FEAC52042
:102FA000F40241EA555140EA56506FF0020202EB3A
:102FB0002E4201EB025585EACE710AD05FEA440C3D
:102FC00018BF24F0004450F1000041F1000120EA54
:102FD000D47040F2FE7C624500D270BDA84214BF9E
:102FE0004FF080444FF04044002E08BF0024BEF153
:102FF000806FA8BFA1F1C041BDE8704080F282801F
:103000004FF0000001F1C04101F0004170479EEA1D
:103010000C0F0CEA131518BF95EA0C0F06D04FF0F1
:10302000000081EA030E0EF0004170BD00F01CF8B4
:103030008900013E00F007B800F009B84FEA430CE0
:103040005FEA5C5C08D081EA030100F05BB84FEAFC
:10305000410C5FEA5C5CF6D14FF00000014970471B
:103060000000FF070000F87F0EF1020E2EF0030EA5
:103070005EF8046B364205D4012A43EB030515F5CF
:10308000001F12D8012841EB010C1CF5001F0CD8C1
:103090000ED14FEAD17C15F5001F0CEB4C0C0CF156
:1030A000020C08BF4CEBD37C04E04FF0080C01E0AD
:1030B0004FEAD37C0CEB4C0526FA05F606F0070622
:1030C000B6F1040C06D20EEB860CBDE870404CF055
:1030D000010C6047DFE80CF0090B02024FF00041E1
:1030E0004FF00000A1F5002170BD194610460128DF
:1030F00051EB010418BFD4F5001484BF002001F087
:10310000004170BD0808A0F500114FEA3101704779
:1031100010B591EA030F48BF83F000433FF5EEACD2
:10312000841A71EB030C07D212198CF0004C43EB9C
:103130000C03001B61EB0C01DFF8A4E14FEA115412
:10314000A4EB135C1EEA430F18BF9EEA445F00F035
:10315000B08023EA6E03524221EA0451C3EB6E03AE
:1031600038BF5B1EDCF1200E25D322FA0CFE10EBDB
:103170000E0043FA0CFE41EB0E01CCF1200E03FAD7
:103180000EFE10EB0E0051F10001CCF1200E29D4FF
:1031900012FA0EF201EB0451BDE8104058BF70471F
:1031A000401C1CBFB2F1004F704700280CBF491CE7
:1031B00020F00100704712EB020E43EB030218BF30
:1031C0004FF0010E4EEA4202ACF1200CDCF11E0E73
:1031D00054D943FA0CFE10EB0E0051F1FF31CCF143
:1031E0001E0ED5D50EF1010E12FA0EFE404141EB36
:1031F000010101EB445C5FEA5C5C10D910EBDE700E
:1032000001EB045138BFBEF1004FBDE8104018BFBC
:10321000704700280CBF491C20F00100704730D2D5
:103220004FEAD42C11F5001124F400641BD0B1FA3C
:1032300081F20B3AA41AA41ED2F12003914030FA75
:1032400003F31943904001EBCC71002C01EB0451C6
:10325000BDE81040A8BF704701F1C0414FF0000029
:1032600001F000417047B0FA80F310FA03F100D189
:1032700010BDE41A173C4805C90AE4E701EB045104
:1032800010BD491001EB0451BDE810404FEA300079
:1032900002E04FF0000170474A0008BF0042F8D03A
:1032A000B2F5001F28BF704701F000414FF0000049
:1032B00070479EEA445F07D011EA5E0FBDE81040F8
:1032C00004BF002100207047BDE8104070B5FFF733
:1032D000CBFE00BF40DFF63E83F000411046704752
:1032E0000000E0FF43004FEAD30C4FEA3C0C4340A0
:1032F0001FBF40070CF1605113F0FE4F70471CF0E8
:10330000006F03D100200CF0004170470CF0004327
:1033100043EA507010B540EACC0000F04FF800BF0F
:10332000000000924FEA0001FFF7ECBE4FF00041B1
:103330004FF00000A1F500217047401058BFC0F1C8
:103340004040491058BFC1F140418142EFF3008035
:103350007047000050EA010C00F113801CF5000FCB
:1033600058BFBCF5000F01D48842704707D710F54D
:10337000000F58BF11F5000F15D4884270478942DD
:1033800070471CF5000F04D5BCF5000FF7D581423E
:1033900070474FF0807C1CEB400F38BF1CEB410F97
:1033A00001D28142704710B500F008F8922449001C
:1033B0004FF000504FF08051FFF7BFBF0EF1020EEB
:1033C0002EF0030E5EF8044B244204D44FEA41026F
:1033D000B2F17F4F11D84FEA4003B3F17F4F0CD8C1
:1033E0000ED14FEAD07CB2F17F4F0CEB4C0C0CF1BC
:1033F000020C08BF4CEBD17C04E04FF0080C01E05C
:103400004FEAD17C0CEB4C0324FA03F404F00704DC
:10341000B4F1040C06D20EEB840CBDE810404CF065
:10342000010C6047DFE80CF0070802024FF0004093
:10343000A0F5800010BD0846420018BFD2F180728E
:1034400088BF00F0004010BDFF2141EAD050C00508
:10345000704751EA000C00F113801CF5000F58BFB3
:10346000BCF5000F01D48142704707D711F5000F5A
:1034700058BF10F5000F15D481427047894270473C
:103480001CF5000F04D5BCF5000FF7D58842704736
:103490004FF0807C1CEB410F38BF1CEB400F01D27A
:1034A0008842704780EA010081EA000180EA010059
:1034B000FFF779BFFDF752B80000000000000000E0
:1034C0001010101000100000282828000000000034
:1034D00028287C287C282800103C503814781000BC
:1034E000004C2C10086060003048502054483400D4
:1034F00030102000000000000810202020100800DC
:103500002010080808102000001054385410000043
:103510000010107C101000000000000000180810BF
:10352000000000007C0000000000000000303000BF
:10353000000408102040000038444C546444380013
:1035400010301010101038003844040810207C008F
:103550007C08100804443800081828487C08080033
:103560007C407804044438001820407844443800F3
:103570007C0408102020200038444438444438009B
:103580003844443C04083000003030003030000043
:1035900000303000301020000810204020100800BB
:1035A00000007C007C0000002010080408102000AF
:1035B0003844040810001000384404345C443800D7
:1035C000102844447C4444007844447844447800BF
:1035D00038444040404438007048444444487000F7
:1035E0007C40407840407C007C4040784040400037
:1035F0003844405C44443C004444447C44444400DB
:1036000038101010101038001C0808080848300046
:1036100044485060504844004040404040407C0096
:10362000446C545444444400444464544C44440062
:10363000384444444444380078444478404040008E
:103640003844444454483400784444785048440052
:103650003C404038040478007C101010101010001A
:1036600044444444444438004444444444281000FE
:1036700044444454545428004444281028444400EA
:1036800044444428101010007C04081020407C00A2
:10369000382020202020380000402010080400009E
:1036A0003808080808083800102844000000000006
:1036B0000000000000007C00201008000000000056
:1036C000000038043C443C004040586444447800C6
:1036D00000003840404438000404344C44443C006A
:1036E000000038447C40380038242070202020001E
:1036F00000003C44443C0438404058644444440086
:103700001000301010103800080018080808483061
:1037100040404850605048003010101010103800E1
:103720000000685454444400000058644444440079
:103730000000384444443800000058646458404055
:103740000000344C4C3404040000586440404000F5
:1037500000003C403804780020207020202418000D
:1037600000004444444C3400000044444428100009
:103770000000444454542800000044281028440009
:1037800000004444443C043800007C0810207C00C5
:1037900010202040202010000010101010101000E9
:1037A0002010100810102000000000205408000015
:1037B0000000000000000000000000000000000009
:1037C0000000001818181818181800001818000021
:1037D0000012362448000000000000000000000035
:1037E000000000242424FE484848FE4848480000C1
:1037F00000001038545450301C1414545438101015
:1038000000000044A4A8A8A8541A2A2A2A440000A8
:1038100000000030484848506EA494888976000023
:1038200000606020C00000000000000000000000F8
:1038300000020408081010101010100808040200FC
:103840000040201010080808080808101020400048
:10385000000000001010D63838D61010000000000C
:103860000000000010101010FE10101010000000DA
:10387000000000000000000000000000606020C0A8
:1038800000000000000000007F00000000000000B9
:103890000000000000000000000000006060000068
:1038A000000001020204040808101020204040001B
:1038B00000000018244242424242424224180000C2
:1038C000000000107010101010101010107C00007C
:1038D0000000003C4242420404081020427E0000E6
:1038E0000000003C42420418040202424438000036
:1038F000000000040C14242444447E04041E000030
:103900000000007E404040586402024244380000FB
:103910000000001C24404058644242422418000029
:103920000000007E42440808101010101010000023
:103930000000003C4242422418244242423C000023
:103940000000001824424242261A020224380000D5
:103950000000000000001818000000001818000007
:1039600000000000000018180000001818083000BF
:10397000000000020408102040201008040200008B
:10398000000000000000FE000000FE00000000003B
:10399000000000402010080402040810204000002D
:1039A0000000003C424262020408080018180000AF
:1039B00000000038445AAAAAAAAAB4424438000017
:1039C0000000001010182828243C444242E7000060
:1039D000000000F8444444784442424244F8000065
:1039E0000000003E424280808080804244380000D7
:1039F000000000F8444242424242424244F8000081
:103A0000000000FE424848784848404242FE00001C
:103A1000000000FE424848784848404040E000002E
:103A20000000003C44448080808E84444438000080
:103A3000000000E7424242427E42424242E700002A
:103A40000000007C1010101010101010107C0000EE
:103A50000000003E0808080808080808080888F060
:103A6000000000EE444850705048484444EE0000C6
:103A7000000000E0404040404040404042FE000026
:103A8000000000EE6C6C6C6C5454545454D600001E
:103A9000000000C7626252524A4A4A4646E20000AB
:103AA0000000003844828282828282824438000090
:103AB000000000FC424242427C40404040E00000A6
:103AC00000000038448282828282B2CA4C380600EA
:103AD000000000F8444444784848444442E300006D
:103AE0000000003E4242402018040242427C000096
:103AF000000000FE9210101010101010103800007E
:103B0000000000E74242424242424242423C000040
:103B1000000000E742424424242828181010000026
:103B2000000000D692929292AAAA6C4444440000EB
:103B3000000000E7422424181818242442E700005B
:103B4000000000EE44442828101010101038000027
:103B50000000007E840408081020204242FC00007F
:103B6000001E1010101010101010101010101E0059
:103B7000000040402020101008040402020201014D
:103B800000780808080808080808080808087800E5
:103B900000081422000000000000000000000000E7
:103BA000000000000000000000000000000000FF16
:103BB0000060100000000000000000000000000095
:103BC000000000000000003C421E2242423F000074
:103BD000000000C040404058644242426458000027
:103BE000000000000000001C22404040221C000099
:103BF000000000060202021E22424242261B000072
:103C0000000000000000003C427E4040423C0000BA
:103C10000000000F1110107E10101010107C00001A
:103C2000000000000000003E444438403C42423C5A
:103C3000000000C04040405C6242424242E7000057
:103C4000000000303000007010101010107C0000D8
:103C50000000000C0C00001C04040404040444785C
:103C6000000000C04040404E4850684844EE00000C
:103C7000000000701010101010101010107C0000C8
:103C800000000000000000F64949494949ED0000E4
:103C900000000000000000DC6242424242E70000F7
:103CA000000000000000003C42424242423C000052
:103CB00000000000000000D864424242645840E026
:103CC000000000000000001E22424242261A0207A5
:103CD00000000000000000EE3220202020F800004C
:103CE000000000000000003E42403C02427C000018
:103CF000000000000010107C10101010100C0000CC
:103D000000000000000000C642424242463B000064
:103D100000000000000000E74224242810100000EA
:103D200000000000000000D79292AAAA44440000BC
:103D3000000000000000006E24181818247600000F
:103D400000000000000000E742242428181010E0C2
:103D5000000000000000007E44081010227E0000D9
:103D60000003040404040408040404040404030019
:103D700008080808080808080808080808080808C3
:103D800000601010101010081010101010106000BB
:103D900000000000000020520C00000000000000A5
:103DA000CEC2000023F81208120883F84208420825
:103DB00013F8100027FCE4A424A424A424A42FFEB8
:103DC0000000B6C8010000803FFE222022203FFCF8
:103DD0002220222023E020002FF02410422041C086
:103DE0008630380ECAAA000027F81408140887F88D
:103DF0004408440817F811202120E92425282330FD
:103E000021202FFE0000B6C8010000803FFE2220C6
:103E100022203FFC2220222023E020002FF024102B
:103E2000422041C08630380EC8AB000000000000C0
:103E300000380000300000680000440000C20001AB
:103E400081000300C00600700FFFFE101808601804
:103E50000000180000180000186003FF8000180020
:103E60000018000018000018081FFFFC00000000E8
:103E70000000B6AF0000000000000001800001005B
:103E80000061003F810000010000010C0007FC0000
:103E9000310C3FC10C06010C04010C0C81080843D5
:103EA000081062081022082FF408381408000808C7
:103EB0000011180020F8004030000000B5E70000B5
:103EC00000000000001800001000001000001000AA
:103ED0000FFFF00810200810200810200810200FF5
:103EE000FFE00810200810200810200810200FFF05
:103EF000E008100000100800100800100400180C62
:103F0000000FF8000000D7D3000000000000000000
:103F1000200FFFF00000600000800003000014008C
:103F200000180000180000180C7FFFFE00180000A9
:103F300018000018000018000018000018000018F1
:103F40000000180000180000F80000300000000019
:103F5000BCBC00000004000007018006010006014F
:103F60000006010006C10C3F3FF0060100060100FB
:103F700006010006FFF80708103E08302604200658
:103F800004600602400602C0060180060380060C9B
:103F9000601E103E0CE00C000000CAF5000000009E
:103FA0000000001C000019800018E00018600018D4
:103FB0002800181C3FFFE0003C00007C00005A0075
:103FC00000DA000099000119800318C00618600487
:103FD000183808181E30180840180000180000187B
:103FE00000000000C8AB000000000000000000035B
:103FF0000000000380000007800000068000000C25
:104000004000001C20000018300000301800006044
:104010000C0000C00700018003C0030002F807FF86
:10402000FF7C080180903001800040018000000189
:104030008000000181000001838001FFFFC00001BA
:10404000800000018000000180000001800000016C
:10405000800000018010000180381FFFFFFC00007D
:10406000000000000000B6AF0000000000000000EB
:104070000000080000000E0000000C00000C0C0006
:104080003FFE0C0010000C0000000C0000000C189B
:104090000000FFFC00020C1800070C183FFF8C18F2
:1040A00001C00C1801C00C18018008180300081882
:1040B0000210181806081818040C10180806101812
:1040C000100630102FFB20103E0360101002C0308D
:1040D0000000803000010C30000203E0000C01E021
:1040E0000010008000000000B5E7000000000000A4
:1040F0000000000300000003800000030000000334
:104100000000000300000003000007FFFFC00603DB
:1041100000C0060300C0060300C0060300C006037B
:1041200000C0060300C007FFFFC0060300C006036F
:1041300000C0060300C0060300C0060300C007FF5E
:10414000FFC0060300800603000000030010000308
:10415000000800030008000300180003801C000191
:10416000FFF80000000000000000D7D300000000AE
:104170000000000000000000000000C003FFFFE09E
:10418000000001E00000030000000600000018002D
:10419000000030000001C0000001C00000018000EC
:1041A00000018010000180383FFFFFFC000180000B
:1041B00000018000000180000001800000018000FB
:1041C00000018000000180000001800000018000EB
:1041D000000180000001800000018000003F80009D
:1041E000000700000002000000000000BCBC00004E
:1041F0000000000000000180080001C00E000180E6
:104200000C0001800C0001800C0001800C00019862
:104210000C183FFFFFFC01800C0001800C000180A6
:104220000C0001800C00018C0C2001B3FFF001C0D8
:1042300080600F8080603D8040C0318040C0018040
:104240002180018021800180330001801E000180D7
:104250000C0001801E00018037000180E3C01F8335
:1042600080F8078E007C0230000000000000CAF5D4
:104270000000000000000000000100000001C0007C
:1042800000018C0000018700000183800001818013
:1042900000018080000180303FFFFFF81003C00064
:1042A0000007C0000007A000000DA000000D900056
:1042B000001990000019980000318C000061860000
:1042C00000C1870000818380018181C0030180F0EB
:1042D0000401807C0801803810018010600180009A
:1042E00000018000000180000001000000000000CB
:1042F00002400000000000A0000000000540000097
:10430000000000C8000000000C4000000000409CBD
:1043100000000000194000000020BCBE00000000AA
:1043200034400000BFC91B8E00000004B5400000EF
:10433000504BCFD06607E2CF010000006C41000077
:104340003E8251AADFEEA73401000000D9420000EE
:10435000DCB5A0E23A301F97FFFFFFFFB445000035
:10436000FD25A0C8E9A3C14FFFFFFFFFFF3F0000ED
:104370000000008000000000FF3F000000000080FF
:1043800000000000C04300080000002034000000CE
:104390006C010008F443000834000020740A000097
:1043A000880100081C00000043000000F8FFFFFF28
:1043B0000C0000000E0000000F0000002E000000A6
:1043C00000A24A04000000000000000001020304F3
:1043D00006070809000000000000000000000000BF
:1043E0000102030401020304060708090204060887
:0443F00000000000C9
:0400000508000131BD
:00000001FF
